{
  "_format": "hh-sol-artifact-1",
  "contractName": "PrePrintTrack",
  "sourceName": "contracts/PrePrintTrack.sol",
  "abi": [
    {
      "inputs": [],
      "stateMutability": "payable",
      "type": "constructor"
    },
    {
      "anonymous": false,
      "inputs": [
        {
          "indexed": true,
          "internalType": "address",
          "name": "previousOwner",
          "type": "address"
        },
        {
          "indexed": true,
          "internalType": "address",
          "name": "newOwner",
          "type": "address"
        }
      ],
      "name": "OwnershipTransferred",
      "type": "event"
    },
    {
      "anonymous": false,
      "inputs": [
        {
          "indexed": false,
          "internalType": "string",
          "name": "fileCID",
          "type": "string"
        },
        {
          "indexed": false,
          "internalType": "string",
          "name": "keyInfo",
          "type": "string"
        },
        {
          "indexed": true,
          "internalType": "address",
          "name": "submitAddress",
          "type": "address"
        },
        {
          "indexed": true,
          "internalType": "uint256",
          "name": "submitTime",
          "type": "uint256"
        },
        {
          "indexed": false,
          "internalType": "string",
          "name": "description",
          "type": "string"
        }
      ],
      "name": "Submit",
      "type": "event"
    },
    {
      "inputs": [
        {
          "internalType": "address",
          "name": "_authorAddress",
          "type": "address"
        },
        {
          "internalType": "uint256",
          "name": "_startIndex",
          "type": "uint256"
        },
        {
          "internalType": "uint256",
          "name": "_endIndex",
          "type": "uint256"
        }
      ],
      "name": "getAuthorPapers",
      "outputs": [
        {
          "internalType": "string[]",
          "name": "authorPapers_",
          "type": "string[]"
        }
      ],
      "stateMutability": "view",
      "type": "function"
    },
    {
      "inputs": [],
      "name": "getBalance",
      "outputs": [
        {
          "internalType": "uint256",
          "name": "",
          "type": "uint256"
        }
      ],
      "stateMutability": "view",
      "type": "function"
    },
    {
      "inputs": [],
      "name": "isOwner",
      "outputs": [
        {
          "internalType": "bool",
          "name": "",
          "type": "bool"
        }
      ],
      "stateMutability": "view",
      "type": "function"
    },
    {
      "inputs": [],
      "name": "owner",
      "outputs": [
        {
          "internalType": "address payable",
          "name": "",
          "type": "address"
        }
      ],
      "stateMutability": "view",
      "type": "function"
    },
    {
      "inputs": [
        {
          "internalType": "uint256",
          "name": "",
          "type": "uint256"
        }
      ],
      "name": "prePrintCIDMap",
      "outputs": [
        {
          "internalType": "string",
          "name": "",
          "type": "string"
        }
      ],
      "stateMutability": "view",
      "type": "function"
    },
    {
      "inputs": [
        {
          "internalType": "uint256",
          "name": "_startIndex",
          "type": "uint256"
        },
        {
          "internalType": "uint256",
          "name": "_endIndex",
          "type": "uint256"
        }
      ],
      "name": "prePrintCIDs",
      "outputs": [
        {
          "internalType": "string[]",
          "name": "",
          "type": "string[]"
        }
      ],
      "stateMutability": "view",
      "type": "function"
    },
    {
      "inputs": [],
      "name": "prePrintCnt",
      "outputs": [
        {
          "internalType": "uint256",
          "name": "",
          "type": "uint256"
        }
      ],
      "stateMutability": "view",
      "type": "function"
    },
    {
      "inputs": [
        {
          "internalType": "string",
          "name": "",
          "type": "string"
        }
      ],
      "name": "prePrints",
      "outputs": [
        {
          "internalType": "address",
          "name": "submitAddress",
          "type": "address"
        },
        {
          "internalType": "uint256",
          "name": "submitTime",
          "type": "uint256"
        },
        {
          "internalType": "string",
          "name": "keyInfo",
          "type": "string"
        }
      ],
      "stateMutability": "view",
      "type": "function"
    },
    {
      "inputs": [
        {
          "internalType": "string",
          "name": "_fileCID",
          "type": "string"
        },
        {
          "internalType": "string",
          "name": "_keyInfo",
          "type": "string"
        },
        {
          "internalType": "string",
          "name": "_description",
          "type": "string"
        }
      ],
      "name": "submit",
      "outputs": [],
      "stateMutability": "nonpayable",
      "type": "function"
    },
    {
      "inputs": [
        {
          "internalType": "address payable",
          "name": "newOwner",
          "type": "address"
        }
      ],
      "name": "transferOwnership",
      "outputs": [],
      "stateMutability": "nonpayable",
      "type": "function"
    },
    {
      "inputs": [],
      "name": "withdraw",
      "outputs": [],
      "stateMutability": "payable",
      "type": "function"
    },
    {
      "stateMutability": "payable",
      "type": "receive"
    }
  ],
  "bytecode": "0x6080604052600080546001600160a01b03191633179055610e7b806100256000396000f3fe6080604052600436106100a05760003560e01c80638da5cb5b116100645780638da5cb5b146101545780638f32d59b1461018c5780639eac0709146101b7578063d6c927f9146101d7578063eaaa85c8146101ed578063f2fde38b1461021a57600080fd5b806312065fe0146100ac578063164e0a0e146100ce5780633ccfd60b146100fb57806346fb5ac61461010557806387074cf41461012557600080fd5b366100a757005b600080fd5b3480156100b857600080fd5b50475b6040519081526020015b60405180910390f35b3480156100da57600080fd5b506100ee6100e9366004610a23565b61023a565b6040516100c59190610aa1565b610103610415565b005b34801561011157600080fd5b50610103610120366004610ba6565b610476565b34801561013157600080fd5b50610145610140366004610c2e565b61060a565b6040516100c593929190610c6b565b34801561016057600080fd5b50600054610174906001600160a01b031681565b6040516001600160a01b0390911681526020016100c5565b34801561019857600080fd5b506000546001600160a01b0316331460405190151581526020016100c5565b3480156101c357600080fd5b506100ee6101d2366004610cb0565b6106ca565b3480156101e357600080fd5b506100bb60015481565b3480156101f957600080fd5b5061020d610208366004610ce5565b61086b565b6040516100c59190610cfe565b34801561022657600080fd5b50610103610235366004610d18565b610905565b6060818311156102875760405162461bcd60e51b8152602060048201526013602482015272496e76616c696420696e6465782072616e676560681b60448201526064015b60405180910390fd5b60015482106102cd5760405162461bcd60e51b8152602060048201526012602482015271496e646578206f7574206f662072616e676560701b604482015260640161027e565b60006102d98484610d4b565b6102e4906001610d62565b67ffffffffffffffff8111156102fc576102fc610b03565b60405190808252806020026020018201604052801561032f57816020015b606081526020019060019003908161031a5790505b509050835b83811161040d576000818152600260205260409020805461035490610d7a565b80601f016020809104026020016040519081016040528092919081815260200182805461038090610d7a565b80156103cd5780601f106103a2576101008083540402835291602001916103cd565b820191906000526020600020905b8154815290600101906020018083116103b057829003601f168201915b50505050508286836103df9190610d4b565b815181106103ef576103ef610db5565b6020026020010181905250808061040590610dcb565b915050610334565b509392505050565b6000546001600160a01b0316331461042c57600080fd5b6000471161043957600080fd5b600080546040516001600160a01b03909116914780156108fc02929091818181858888f19350505050158015610473573d6000803e3d6000fd5b50565b60006001600160a01b03166003846040516104919190610de6565b908152604051908190036020019020546001600160a01b0316146104f75760405162461bcd60e51b815260206004820152601c60248201527f54686520636964206f662066696c652068617320657869737465642100000000604482015260640161027e565b600154600090815260026020908152604090912084514292339261051f92909188019061098a565b506001805490600061053083610dcb565b91905055506040518060600160405280826001600160a01b03168152602001838152602001858152506003866040516105699190610de6565b9081526040805160209281900383019020835181546001600160a01b0319166001600160a01b0390911617815583830151600182015590830151805191926105b99260028501929091019061098a565b5090505081816001600160a01b03167fa5e80738a605c48e5990a58fec3730554b8011eec29c52f7ad07804c4173615a8787876040516105fb93929190610e02565b60405180910390a35050505050565b80516020818301810180516003825292820191909301209152805460018201546002830180546001600160a01b0390931693919261064790610d7a565b80601f016020809104026020016040519081016040528092919081815260200182805461067390610d7a565b80156106c05780601f10610695576101008083540402835291602001916106c0565b820191906000526020600020905b8154815290600101906020018083116106a357829003601f168201915b5050505050905083565b606060006106d8848461023a565b90506000805b825181101561075957866001600160a01b0316600384838151811061070557610705610db5565b602002602001015160405161071a9190610de6565b908152604051908190036020019020546001600160a01b03161415610747578161074381610dcb565b9250505b8061075181610dcb565b9150506106de565b508067ffffffffffffffff81111561077357610773610b03565b6040519080825280602002602001820160405280156107a657816020015b60608152602001906001900390816107915790505b5092506000805b835181101561086057876001600160a01b031660038583815181106107d4576107d4610db5565b60200260200101516040516107e99190610de6565b908152604051908190036020019020546001600160a01b0316141561084e5783818151811061081a5761081a610db5565b602002602001015185838151811061083457610834610db5565b6020026020010181905250818061084a90610dcb565b9250505b8061085881610dcb565b9150506107ad565b505050509392505050565b6002602052600090815260409020805461088490610d7a565b80601f01602080910402602001604051908101604052809291908181526020018280546108b090610d7a565b80156108fd5780601f106108d2576101008083540402835291602001916108fd565b820191906000526020600020905b8154815290600101906020018083116108e057829003601f168201915b505050505081565b6000546001600160a01b0316331461091c57600080fd5b6001600160a01b03811661092f57600080fd5b600080546040516001600160a01b03808516939216917f8be0079c531659141344cd1fd0a4f28419497f9722a3daafe3b4186f6b6457e091a3600080546001600160a01b0319166001600160a01b0392909216919091179055565b82805461099690610d7a565b90600052602060002090601f0160209004810192826109b857600085556109fe565b82601f106109d157805160ff19168380011785556109fe565b828001600101855582156109fe579182015b828111156109fe5782518255916020019190600101906109e3565b50610a0a929150610a0e565b5090565b5b80821115610a0a5760008155600101610a0f565b60008060408385031215610a3657600080fd5b50508035926020909101359150565b60005b83811015610a60578181015183820152602001610a48565b83811115610a6f576000848401525b50505050565b60008151808452610a8d816020860160208601610a45565b601f01601f19169290920160200192915050565b6000602080830181845280855180835260408601915060408160051b870101925083870160005b82811015610af657603f19888603018452610ae4858351610a75565b94509285019290850190600101610ac8565b5092979650505050505050565b634e487b7160e01b600052604160045260246000fd5b600082601f830112610b2a57600080fd5b813567ffffffffffffffff80821115610b4557610b45610b03565b604051601f8301601f19908116603f01168101908282118183101715610b6d57610b6d610b03565b81604052838152866020858801011115610b8657600080fd5b836020870160208301376000602085830101528094505050505092915050565b600080600060608486031215610bbb57600080fd5b833567ffffffffffffffff80821115610bd357600080fd5b610bdf87838801610b19565b94506020860135915080821115610bf557600080fd5b610c0187838801610b19565b93506040860135915080821115610c1757600080fd5b50610c2486828701610b19565b9150509250925092565b600060208284031215610c4057600080fd5b813567ffffffffffffffff811115610c5757600080fd5b610c6384828501610b19565b949350505050565b60018060a01b0384168152826020820152606060408201526000610c926060830184610a75565b95945050505050565b6001600160a01b038116811461047357600080fd5b600080600060608486031215610cc557600080fd5b8335610cd081610c9b565b95602085013595506040909401359392505050565b600060208284031215610cf757600080fd5b5035919050565b602081526000610d116020830184610a75565b9392505050565b600060208284031215610d2a57600080fd5b8135610d1181610c9b565b634e487b7160e01b600052601160045260246000fd5b600082821015610d5d57610d5d610d35565b500390565b60008219821115610d7557610d75610d35565b500190565b600181811c90821680610d8e57607f821691505b60208210811415610daf57634e487b7160e01b600052602260045260246000fd5b50919050565b634e487b7160e01b600052603260045260246000fd5b6000600019821415610ddf57610ddf610d35565b5060010190565b60008251610df8818460208701610a45565b9190910192915050565b606081526000610e156060830186610a75565b8281036020840152610e278186610a75565b90508281036040840152610e3b8185610a75565b969550505050505056fea26469706673582212206cab3d46662450be9a8e38cf6859938d69fb0e72f2ac674632b447b2bbbfbfcf64736f6c63430008090033",
  "linkReferences": {},
  "deployedLinkReferences": {}
}