{
  "_format": "hh-sol-artifact-1",
  "contractName": "PrePrintTrack",
  "sourceName": "contracts/PrePrintTrack.sol",
  "abi": [
    {
      "inputs": [],
      "stateMutability": "payable",
      "type": "constructor",
      "payable": true
    },
    {
      "anonymous": false,
      "inputs": [
        {
          "indexed": false,
          "internalType": "string",
          "name": "_fileCID",
          "type": "string"
        },
        {
          "indexed": false,
          "internalType": "string",
          "name": "keyInfo",
          "type": "string"
        },
        {
          "indexed": true,
          "internalType": "address",
          "name": "_submitAddress",
          "type": "address"
        },
        {
          "indexed": true,
          "internalType": "uint256",
          "name": "_submitTime",
          "type": "uint256"
        },
        {
          "indexed": false,
          "internalType": "string",
          "name": "_desciption",
          "type": "string"
        }
      ],
      "name": "Submit",
      "type": "event"
    },
    {
      "inputs": [],
      "name": "owner",
      "outputs": [
        {
          "internalType": "address payable",
          "name": "",
          "type": "address"
        }
      ],
      "stateMutability": "view",
      "type": "function",
      "constant": true
    },
    {
      "inputs": [
        {
          "internalType": "uint256",
          "name": "",
          "type": "uint256"
        }
      ],
      "name": "prePrintCIDs",
      "outputs": [
        {
          "internalType": "string",
          "name": "",
          "type": "string"
        }
      ],
      "stateMutability": "view",
      "type": "function",
      "constant": true
    },
    {
      "inputs": [
        {
          "internalType": "string",
          "name": "",
          "type": "string"
        }
      ],
      "name": "prePrints",
      "outputs": [
        {
          "internalType": "address",
          "name": "submitAddress",
          "type": "address"
        },
        {
          "internalType": "string",
          "name": "keyInfo",
          "type": "string"
        }
      ],
      "stateMutability": "view",
      "type": "function",
      "constant": true
    },
    {
      "inputs": [
        {
          "internalType": "string",
          "name": "_fileCID",
          "type": "string"
        },
        {
          "internalType": "string",
          "name": "_keyInfo",
          "type": "string"
        },
        {
          "internalType": "string",
          "name": "_description",
          "type": "string"
        }
      ],
      "name": "submit",
      "outputs": [],
      "stateMutability": "nonpayable",
      "type": "function"
    }
  ],
  "bytecode": "0x6080604052336000806101000a81548173ffffffffffffffffffffffffffffffffffffffff021916908373ffffffffffffffffffffffffffffffffffffffff160217905550610caa806100536000396000f3fe608060405234801561001057600080fd5b506004361061004c5760003560e01c806346fb5ac61461005157806387074cf41461006d5780638da5cb5b1461009e578063e2cd324c146100bc575b600080fd5b61006b600480360381019061006691906105ea565b6100ec565b005b61008760048036038101906100829190610691565b6102de565b60405161009592919061079a565b60405180910390f35b6100a66103c0565b6040516100b391906107eb565b60405180910390f35b6100d660048036038101906100d1919061083c565b6103e4565b6040516100e39190610869565b60405180910390f35b600073ffffffffffffffffffffffffffffffffffffffff1660028460405161011491906108c7565b908152602001604051809103902060000160009054906101000a900473ffffffffffffffffffffffffffffffffffffffff1673ffffffffffffffffffffffffffffffffffffffff161461019c576040517f08c379a00000000000000000000000000000000000000000000000000000000081526004016101939061092a565b60405180910390fd5b600042905060003390506001859080600181540180825580915050600190039060005260206000200160009091909190915090816101da9190610b56565b5060405180604001604052808273ffffffffffffffffffffffffffffffffffffffff1681526020018581525060028660405161021691906108c7565b908152602001604051809103902060008201518160000160006101000a81548173ffffffffffffffffffffffffffffffffffffffff021916908373ffffffffffffffffffffffffffffffffffffffff16021790555060208201518160010190816102809190610b56565b50905050818173ffffffffffffffffffffffffffffffffffffffff167fa5e80738a605c48e5990a58fec3730554b8011eec29c52f7ad07804c4173615a8787876040516102cf93929190610c28565b60405180910390a35050505050565b6002818051602081018201805184825260208301602085012081835280955050505050506000915090508060000160009054906101000a900473ffffffffffffffffffffffffffffffffffffffff169080600101805461033d90610979565b80601f016020809104026020016040519081016040528092919081815260200182805461036990610979565b80156103b65780601f1061038b576101008083540402835291602001916103b6565b820191906000526020600020905b81548152906001019060200180831161039957829003601f168201915b5050505050905082565b60008054906101000a900473ffffffffffffffffffffffffffffffffffffffff1681565b600181815481106103f457600080fd5b90600052602060002001600091509050805461040f90610979565b80601f016020809104026020016040519081016040528092919081815260200182805461043b90610979565b80156104885780601f1061045d57610100808354040283529160200191610488565b820191906000526020600020905b81548152906001019060200180831161046b57829003601f168201915b505050505081565b6000604051905090565b600080fd5b600080fd5b600080fd5b600080fd5b6000601f19601f8301169050919050565b7f4e487b7100000000000000000000000000000000000000000000000000000000600052604160045260246000fd5b6104f7826104ae565b810181811067ffffffffffffffff82111715610516576105156104bf565b5b80604052505050565b6000610529610490565b905061053582826104ee565b919050565b600067ffffffffffffffff821115610555576105546104bf565b5b61055e826104ae565b9050602081019050919050565b82818337600083830152505050565b600061058d6105888461053a565b61051f565b9050828152602081018484840111156105a9576105a86104a9565b5b6105b484828561056b565b509392505050565b600082601f8301126105d1576105d06104a4565b5b81356105e184826020860161057a565b91505092915050565b6000806000606084860312156106035761060261049a565b5b600084013567ffffffffffffffff8111156106215761062061049f565b5b61062d868287016105bc565b935050602084013567ffffffffffffffff81111561064e5761064d61049f565b5b61065a868287016105bc565b925050604084013567ffffffffffffffff81111561067b5761067a61049f565b5b610687868287016105bc565b9150509250925092565b6000602082840312156106a7576106a661049a565b5b600082013567ffffffffffffffff8111156106c5576106c461049f565b5b6106d1848285016105bc565b91505092915050565b600073ffffffffffffffffffffffffffffffffffffffff82169050919050565b6000610705826106da565b9050919050565b610715816106fa565b82525050565b600081519050919050565b600082825260208201905092915050565b60005b8381101561075557808201518184015260208101905061073a565b60008484015250505050565b600061076c8261071b565b6107768185610726565b9350610786818560208601610737565b61078f816104ae565b840191505092915050565b60006040820190506107af600083018561070c565b81810360208301526107c18184610761565b90509392505050565b60006107d5826106da565b9050919050565b6107e5816107ca565b82525050565b600060208201905061080060008301846107dc565b92915050565b6000819050919050565b61081981610806565b811461082457600080fd5b50565b60008135905061083681610810565b92915050565b6000602082840312156108525761085161049a565b5b600061086084828501610827565b91505092915050565b600060208201905081810360008301526108838184610761565b905092915050565b600081905092915050565b60006108a18261071b565b6108ab818561088b565b93506108bb818560208601610737565b80840191505092915050565b60006108d38284610896565b915081905092915050565b7f54686520636964206f662066696c652068617320657869737465640000000000600082015250565b6000610914601b83610726565b915061091f826108de565b602082019050919050565b6000602082019050818103600083015261094381610907565b9050919050565b7f4e487b7100000000000000000000000000000000000000000000000000000000600052602260045260246000fd5b6000600282049050600182168061099157607f821691505b6020821081036109a4576109a361094a565b5b50919050565b60008190508160005260206000209050919050565b60006020601f8301049050919050565b600082821b905092915050565b600060088302610a0c7fffffffffffffffffffffffffffffffffffffffffffffffffffffffffffffffff826109cf565b610a1686836109cf565b95508019841693508086168417925050509392505050565b6000819050919050565b6000610a53610a4e610a4984610806565b610a2e565b610806565b9050919050565b6000819050919050565b610a6d83610a38565b610a81610a7982610a5a565b8484546109dc565b825550505050565b600090565b610a96610a89565b610aa1818484610a64565b505050565b5b81811015610ac557610aba600082610a8e565b600181019050610aa7565b5050565b601f821115610b0a57610adb816109aa565b610ae4846109bf565b81016020851015610af3578190505b610b07610aff856109bf565b830182610aa6565b50505b505050565b600082821c905092915050565b6000610b2d60001984600802610b0f565b1980831691505092915050565b6000610b468383610b1c565b9150826002028217905092915050565b610b5f8261071b565b67ffffffffffffffff811115610b7857610b776104bf565b5b610b828254610979565b610b8d828285610ac9565b600060209050601f831160018114610bc05760008415610bae578287015190505b610bb88582610b3a565b865550610c20565b601f198416610bce866109aa565b60005b82811015610bf657848901518255600182019150602085019450602081019050610bd1565b86831015610c135784890151610c0f601f891682610b1c565b8355505b6001600288020188555050505b505050505050565b60006060820190508181036000830152610c428186610761565b90508181036020830152610c568185610761565b90508181036040830152610c6a8184610761565b905094935050505056fea26469706673582212201c63e8ae5f261acfa65490946e3085ff1576f1d167d2bc778c8395fe9289d6a964736f6c63430008110033",
  "deployedBytecode": "0x608060405234801561001057600080fd5b506004361061004c5760003560e01c806346fb5ac61461005157806387074cf41461006d5780638da5cb5b1461009e578063e2cd324c146100bc575b600080fd5b61006b6004803603810190610066919061069b565b6100ec565b005b61008760048036038101906100829190610742565b6102ec565b604051610095929190610854565b60405180910390f35b6100a66103ce565b6040516100b391906108a5565b60405180910390f35b6100d660048036038101906100d191906108f6565b6103f2565b6040516100e39190610923565b60405180910390f35b600073ffffffffffffffffffffffffffffffffffffffff166002846040516101149190610981565b908152602001604051809103902060000160009054906101000a900473ffffffffffffffffffffffffffffffffffffffff1673ffffffffffffffffffffffffffffffffffffffff161461019c576040517f08c379a0000000000000000000000000000000000000000000000000000000008152600401610193906109e4565b60405180910390fd5b600042905060003390506001859080600181540180825580915050600190039060005260206000200160009091909190915090805190602001906101e192919061049e565b5060405180604001604052808273ffffffffffffffffffffffffffffffffffffffff1681526020018581525060028660405161021d9190610981565b908152602001604051809103902060008201518160000160006101000a81548173ffffffffffffffffffffffffffffffffffffffff021916908373ffffffffffffffffffffffffffffffffffffffff160217905550602082015181600101908051906020019061028e92919061049e565b50905050818173ffffffffffffffffffffffffffffffffffffffff167fa5e80738a605c48e5990a58fec3730554b8011eec29c52f7ad07804c4173615a8787876040516102dd93929190610a04565b60405180910390a35050505050565b6002818051602081018201805184825260208301602085012081835280955050505050506000915090508060000160009054906101000a900473ffffffffffffffffffffffffffffffffffffffff169080600101805461034b90610a7f565b80601f016020809104026020016040519081016040528092919081815260200182805461037790610a7f565b80156103c45780601f10610399576101008083540402835291602001916103c4565b820191906000526020600020905b8154815290600101906020018083116103a757829003601f168201915b5050505050905082565b60008054906101000a900473ffffffffffffffffffffffffffffffffffffffff1681565b6001818154811061040257600080fd5b90600052602060002001600091509050805461041d90610a7f565b80601f016020809104026020016040519081016040528092919081815260200182805461044990610a7f565b80156104965780601f1061046b57610100808354040283529160200191610496565b820191906000526020600020905b81548152906001019060200180831161047957829003601f168201915b505050505081565b8280546104aa90610a7f565b90600052602060002090601f0160209004810192826104cc5760008555610513565b82601f106104e557805160ff1916838001178555610513565b82800160010185558215610513579182015b828111156105125782518255916020019190600101906104f7565b5b5090506105209190610524565b5090565b5b8082111561053d576000816000905550600101610525565b5090565b6000604051905090565b600080fd5b600080fd5b600080fd5b600080fd5b6000601f19601f8301169050919050565b7f4e487b7100000000000000000000000000000000000000000000000000000000600052604160045260246000fd5b6105a88261055f565b810181811067ffffffffffffffff821117156105c7576105c6610570565b5b80604052505050565b60006105da610541565b90506105e6828261059f565b919050565b600067ffffffffffffffff82111561060657610605610570565b5b61060f8261055f565b9050602081019050919050565b82818337600083830152505050565b600061063e610639846105eb565b6105d0565b90508281526020810184848401111561065a5761065961055a565b5b61066584828561061c565b509392505050565b600082601f83011261068257610681610555565b5b813561069284826020860161062b565b91505092915050565b6000806000606084860312156106b4576106b361054b565b5b600084013567ffffffffffffffff8111156106d2576106d1610550565b5b6106de8682870161066d565b935050602084013567ffffffffffffffff8111156106ff576106fe610550565b5b61070b8682870161066d565b925050604084013567ffffffffffffffff81111561072c5761072b610550565b5b6107388682870161066d565b9150509250925092565b6000602082840312156107585761075761054b565b5b600082013567ffffffffffffffff81111561077657610775610550565b5b6107828482850161066d565b91505092915050565b600073ffffffffffffffffffffffffffffffffffffffff82169050919050565b60006107b68261078b565b9050919050565b6107c6816107ab565b82525050565b600081519050919050565b600082825260208201905092915050565b60005b838110156108065780820151818401526020810190506107eb565b83811115610815576000848401525b50505050565b6000610826826107cc565b61083081856107d7565b93506108408185602086016107e8565b6108498161055f565b840191505092915050565b600060408201905061086960008301856107bd565b818103602083015261087b818461081b565b90509392505050565b600061088f8261078b565b9050919050565b61089f81610884565b82525050565b60006020820190506108ba6000830184610896565b92915050565b6000819050919050565b6108d3816108c0565b81146108de57600080fd5b50565b6000813590506108f0816108ca565b92915050565b60006020828403121561090c5761090b61054b565b5b600061091a848285016108e1565b91505092915050565b6000602082019050818103600083015261093d818461081b565b905092915050565b600081905092915050565b600061095b826107cc565b6109658185610945565b93506109758185602086016107e8565b80840191505092915050565b600061098d8284610950565b915081905092915050565b7f54686520636964206f662066696c652068617320657869737465640000000000600082015250565b60006109ce601b836107d7565b91506109d982610998565b602082019050919050565b600060208201905081810360008301526109fd816109c1565b9050919050565b60006060820190508181036000830152610a1e818661081b565b90508181036020830152610a32818561081b565b90508181036040830152610a46818461081b565b9050949350505050565b7f4e487b7100000000000000000000000000000000000000000000000000000000600052602260045260246000fd5b60006002820490506001821680610a9757607f821691505b60208210811415610aab57610aaa610a50565b5b5091905056fea2646970667358221220165a32fc15c4e6c387291bce083b9a5cefef82820968af1382b5686f5e1bb94064736f6c63430008090033",
  "linkReferences": {},
  "deployedLinkReferences": {}
}